:020000040000FA
:020000001128C5
:100008007E1480318B1A0B1D0B28C2210F288B19E7
:100018000B1C0F289F217E100900122870308400C5
:10002800003085000A30A621203084000030850089
:100038000E30A6217E1020002128BD210630FA00AE
:100048000130FB00B8218B170B17D83021008C002A
:1000580022008C012000B101B0017530AF003130B1
:10006800AE003108031D41283008031D41283130F6
:100078002E0275302F3B031C7E28CB21CE211A304F
:10008800FD00F830890B4628FD0B46280032643005
:10009800F80052288B20003A031D55287808031DC4
:1000A8004E287808031D7E2823009714630020003B
:1000B800AE01AF01B001B101F901D721DD21E12184
:1000C80080208620031D6528DA21DF21E321802096
:1000D8008620031D6C28D721DD21E1218020862080
:1000E800031D7328DA21DF21E32180208620031DE8
:1000F8007A28E4208B203528C830F000F101F2017D
:10010800F301080073087204710470040800982150
:10011800003A03199E28750B98287708031DB12803
:100128000230F5005B21B128023075060319B128A9
:100138000130AE2803307506031DA9287708031D72
:10014800B1280430F500E921B128043075060319F7
:10015800B1280330F5001430F700AC21003A031938
:10016800C428740BBE287608031DD7280230F40073
:100178008921D728023074060319D7280130D428DA
:1001880003307406031DCF287608031DD7280430D2
:10019800F400EA21D728043074060319D72803305D
:1001A800F4001430F600FC01FC0A9821003A031D03
:1001B800E228AC21003A031DE228FC017C08080073
:1001C800FA28D721DF21E3212030FA000330FB0091
:1001D800B221D429DA21DD21E321E830E928DA2126
:1001E800DF21E121E130FA000430EB287908003AF8
:1001F8000319E528013A0319EE28033A0319F328ED
:10020800052908000830AC0A2C02031C080001303C
:10021800AC01AE070030AF3DB03DB13D7708031DDE
:10022800F7037608031DF6037808031DF80373081F
:10023800720471047004031908000130F0020030E0
:10024800F13BF23BF33B08003B00BC01BD017030C1
:10025800BE00BF01C001B201B1010230B40071306B
:10026800B3000430B600E130B5000430B800E13026
:10027800B700BA01B901C030BB00080022008C01E8
:100288003F3021008C0023008C01183024008C00A2
:100298002100951325008C0122009D0127001311D0
:1002A800931112159215111591158B1508006529D2
:1002B800D1212000AD01AD0A6D29CE212000AD016C
:1002C8006D292D08003A03195C29013A031961299F
:1002D8006D296E29AE01AF01B001B10108002100FE
:1002E8001508C03911389500873020009500B400F2
:1002F8000B118B1608003208330403190800330861
:100308008A0032080A00813108000330F90A7902AC
:100318000318F901E42020006E29783021009900A3
:100328009801220096010800031020000C1E0314F7
:100338000030093D08002700131DA329E721931D5C
:100348000800E529640080010131890BA7290034E0
:1003580003108C1D03140030093D08007B083B0086
:10036800B4007A08B30008007B08B3007A08B2002A
:10037800080042219121C721282173290B1120004F
:10038800340895007F291630210097000800DA21EB
:10039800DF21E3293B00BB1308003B00BB17080023
:1003A8003B00BF17080022008C16080022008C12A0
:1003B80008008C1408008C1008000C1408000C109D
:0E03C800080093110800131108006E296E2919
:020000040001F9
:04000E00A4F9FFDE74
:00000001FF
